{
  "transactions": [
    {
      "hash": "0xe23936b0deb9f4c3e9619c0d518697d7c06dfb447368b93e67420b73725f84ad",
      "transactionType": "CALL",
      "contractName": null,
      "contractAddress": "0xd0fa1b1a5f89df51fe78df0cbf99715aedaf2943",
      "function": "applyChainUpdates((uint64,bool,bytes,bytes,(bool,uint128,uint128),(bool,uint128,uint128))[])",
      "arguments": [
        "[(3478487238524512106, true, 0x000000000000000000000000d60334bf557b921755cf6a3b4dc30be50fb39df1, 0x000000000000000000000000fb2fcfeebd8722fa802f33c381ff4d1c3dbeb6bf, (false, 0, 0), (false, 0, 0))]"
      ],
      "transaction": {
        "from": "0x215f5375f81b4b120161ee2965067d9def3c5588",
        "to": "0xd0fa1b1a5f89df51fe78df0cbf99715aedaf2943",
        "gas": "0x525dc",
        "value": "0x0",
        "input": "0xdb6327dc000000000000000000000000000000000000000000000000000000000000002000000000000000000000000000000000000000000000000000000000000000010000000000000000000000000000000000000000000000000000000000000020000000000000000000000000000000000000000000000000304611b6affba76a0000000000000000000000000000000000000000000000000000000000000001000000000000000000000000000000000000000000000000000000000000014000000000000000000000000000000000000000000000000000000000000001800000000000000000000000000000000000000000000000000000000000000000000000000000000000000000000000000000000000000000000000000000000000000000000000000000000000000000000000000000000000000000000000000000000000000000000000000000000000000000000000000000000000000000000000000000000000000000000000000000000000000000000000000000000000000000000000000000000000000000000000000000000000000000000000000000000000000000000000000000000000000000000000000000000000000020000000000000000000000000d60334bf557b921755cf6a3b4dc30be50fb39df10000000000000000000000000000000000000000000000000000000000000020000000000000000000000000fb2fcfeebd8722fa802f33c381ff4d1c3dbeb6bf",
        "nonce": "0x43",
        "chainId": "0xaa36a7"
      },
      "additionalContracts": [],
      "isFixedGasLimit": false
    }
  ],
  "receipts": [
    {
      "status": "0x1",
      "cumulativeGasUsed": "0xde66bf",
      "logs": [
        {
          "address": "0xd0fa1b1a5f89df51fe78df0cbf99715aedaf2943",
          "topics": [
            "0x8d340f17e19058004c20453540862a9c62778504476f6756755cb33bcd6c38c2"
          ],
          "data": "0x000000000000000000000000000000000000000000000000304611b6affba76a00000000000000000000000000000000000000000000000000000000000001000000000000000000000000000000000000000000000000000000000000000000000000000000000000000000000000000000000000000000000000000000000000000000000000000000000000000000000000000000000000000000000000000000000000000000000000000000000000000000000000000000000000000000000000000000000000000000000000000000000000000000000000000000000000000000000000000000000000000000000000000000000000000000000000000000000000000000000000000000000000000000000000000000000000000020000000000000000000000000fb2fcfeebd8722fa802f33c381ff4d1c3dbeb6bf",
          "blockHash": "0xba01183df04fc5f0bfce1c84029c3ae948cd492da81030f1a1a68c23fc2dedfe",
          "blockNumber": "0x7935b8",
          "blockTimestamp": "0x67dc493c",
          "transactionHash": "0xe23936b0deb9f4c3e9619c0d518697d7c06dfb447368b93e67420b73725f84ad",
          "transactionIndex": "0x5f",
          "logIndex": "0x83",
          "removed": false
        }
      ],
      "logsBloom": "0x00000000000000400000000000000000000000000000000000000000000000000000000001000000000000000000000000000000000000000004000000002000000000000000000000000000000000000000000000000000000000000000000000000000000020000000000000000000000000000000000000000000000000000000000000000000000000000000000000000000000000000000000000000000000000000000000000000000000000000000000000000000000000000000000000000000000000000000000000000000000000000000000000000000000000000000000000000000000000000000000000000000000000000100000000000000",
      "type": "0x2",
      "transactionHash": "0xe23936b0deb9f4c3e9619c0d518697d7c06dfb447368b93e67420b73725f84ad",
      "transactionIndex": "0x5f",
      "blockHash": "0xba01183df04fc5f0bfce1c84029c3ae948cd492da81030f1a1a68c23fc2dedfe",
      "blockNumber": "0x7935b8",
      "gasUsed": "0x3ba1c",
      "effectiveGasPrice": "0xaa9bc34",
      "from": "0x215f5375f81b4b120161ee2965067d9def3c5588",
      "to": "0xd0fa1b1a5f89df51fe78df0cbf99715aedaf2943",
      "contractAddress": null
    }
  ],
  "libraries": [],
  "pending": [],
  "returns": {},
  "timestamp": 1742489917,
  "chain": 11155111,
  "commit": "740b069"
}