{
  "transactions": [
    {
      "hash": "0x4dcbc1ef0e91f4a57a596beb7daff4fdf0dc21f071c6ee491007604ebc420f9a",
      "transactionType": "CALL",
      "contractName": null,
      "contractAddress": "0x8fc90c833f927be663f86154846dc9dc032cd418",
      "function": "applyChainUpdates((uint64,bool,bytes,bytes,(bool,uint128,uint128),(bool,uint128,uint128))[])",
      "arguments": [
        "[(3478487238524512106, true, 0x0000000000000000000000006f428bcf448429cd0747a0837a7dcf97a3ee8535, 0x00000000000000000000000026c67deabb66c7ada73659c628c994cfab82166d, (false, 0, 0), (false, 0, 0))]"
      ],
      "transaction": {
        "from": "0x215f5375f81b4b120161ee2965067d9def3c5588",
        "to": "0x8fc90c833f927be663f86154846dc9dc032cd418",
        "gas": "0x525dc",
        "value": "0x0",
        "input": "0xdb6327dc000000000000000000000000000000000000000000000000000000000000002000000000000000000000000000000000000000000000000000000000000000010000000000000000000000000000000000000000000000000000000000000020000000000000000000000000000000000000000000000000304611b6affba76a00000000000000000000000000000000000000000000000000000000000000010000000000000000000000000000000000000000000000000000000000000140000000000000000000000000000000000000000000000000000000000000018000000000000000000000000000000000000000000000000000000000000000000000000000000000000000000000000000000000000000000000000000000000000000000000000000000000000000000000000000000000000000000000000000000000000000000000000000000000000000000000000000000000000000000000000000000000000000000000000000000000000000000000000000000000000000000000000000000000000000000000000000000000000000000000000000000000000000000000000000000000000000000000000000000000000000200000000000000000000000006f428bcf448429cd0747a0837a7dcf97a3ee8535000000000000000000000000000000000000000000000000000000000000002000000000000000000000000026c67deabb66c7ada73659c628c994cfab82166d",
        "nonce": "0x52",
        "chainId": "0xaa36a7"
      },
      "additionalContracts": [],
      "isFixedGasLimit": false
    }
  ],
  "receipts": [
    {
      "status": "0x1",
      "cumulativeGasUsed": "0x13d15a0",
      "logs": [
        {
          "address": "0x8fc90c833f927be663f86154846dc9dc032cd418",
          "topics": [
            "0x8d340f17e19058004c20453540862a9c62778504476f6756755cb33bcd6c38c2"
          ],
          "data": "0x000000000000000000000000000000000000000000000000304611b6affba76a0000000000000000000000000000000000000000000000000000000000000100000000000000000000000000000000000000000000000000000000000000000000000000000000000000000000000000000000000000000000000000000000000000000000000000000000000000000000000000000000000000000000000000000000000000000000000000000000000000000000000000000000000000000000000000000000000000000000000000000000000000000000000000000000000000000000000000000000000000000000000000000000000000000000000000000000000000000000000000000000000000000000000000000000000000002000000000000000000000000026c67deabb66c7ada73659c628c994cfab82166d",
          "blockHash": "0xdcb99328d93ce17a6ba41186926e77a7aa6fbc344326366df71b3fd8cf9b39d6",
          "blockNumber": "0x793669",
          "blockTimestamp": "0x67dc5188",
          "transactionHash": "0x4dcbc1ef0e91f4a57a596beb7daff4fdf0dc21f071c6ee491007604ebc420f9a",
          "transactionIndex": "0x68",
          "logIndex": "0x9b",
          "removed": false
        }
      ],
      "logsBloom": "0x00000000000000400000000000000000000000000000000000000000000000000000040000000000000000000000000000000000000000000004000000000000040000000000000000000010000000000000000000000000000000000000000000000000000000000000000000000000000000000000000000000000000000000000000000000000000000000000000000000000000000000000000000000000000000000000000000000000000000000000000000000000000000000000000000000000000000000000000000000000000000000000000000000000000000000000000000000000000000000000000000000000000000000100000000000000",
      "type": "0x2",
      "transactionHash": "0x4dcbc1ef0e91f4a57a596beb7daff4fdf0dc21f071c6ee491007604ebc420f9a",
      "transactionIndex": "0x68",
      "blockHash": "0xdcb99328d93ce17a6ba41186926e77a7aa6fbc344326366df71b3fd8cf9b39d6",
      "blockNumber": "0x793669",
      "gasUsed": "0x3ba1c",
      "effectiveGasPrice": "0x5b49ea5",
      "from": "0x215f5375f81b4b120161ee2965067d9def3c5588",
      "to": "0x8fc90c833f927be663f86154846dc9dc032cd418",
      "contractAddress": null
    }
  ],
  "libraries": [],
  "pending": [],
  "returns": {},
  "timestamp": 1742492042,
  "chain": 11155111,
  "commit": "740b069"
}