{
  "transactions": [
    {
      "hash": "0x4a919ca5b120db7ebecd091ce9274b6307ecaf736cd46641dc0fc814071194c6",
      "transactionType": "CALL",
      "contractName": null,
      "contractAddress": "0x779877a7b0d9e8603169ddbd7836e478b4624789",
      "function": "approve(address,uint256)",
      "arguments": [
        "0x0BF3dE8c5D3e8A2B34D2BEeB17ABfCeBaf363A59",
        "25139802210589126"
      ],
      "transaction": {
        "from": "0x215f5375f81b4b120161ee2965067d9def3c5588",
        "to": "0x779877a7b0d9e8603169ddbd7836e478b4624789",
        "gas": "0x9d2e",
        "value": "0x0",
        "input": "0x095ea7b30000000000000000000000000bf3de8c5d3e8a2b34d2beeb17abfcebaf363a5900000000000000000000000000000000000000000000000000595084547c59c6",
        "nonce": "0x56",
        "chainId": "0xaa36a7"
      },
      "additionalContracts": [],
      "isFixedGasLimit": false
    },
    {
      "hash": "0x6a55a832100af491c47826546c900322988e4e47813d30dedd53025d0cb35c96",
      "transactionType": "CALL",
      "contractName": null,
      "contractAddress": "0xa98dc8d48c96705c8efb3557fe5acbd4402122cd",
      "function": "approve(address,uint256)",
      "arguments": [
        "0x0BF3dE8c5D3e8A2B34D2BEeB17ABfCeBaf363A59",
        "100000"
      ],
      "transaction": {
        "from": "0x215f5375f81b4b120161ee2965067d9def3c5588",
        "to": "0xa98dc8d48c96705c8efb3557fe5acbd4402122cd",
        "gas": "0x9202",
        "value": "0x0",
        "input": "0x095ea7b30000000000000000000000000bf3de8c5d3e8a2b34d2beeb17abfcebaf363a5900000000000000000000000000000000000000000000000000000000000186a0",
        "nonce": "0x57",
        "chainId": "0xaa36a7"
      },
      "additionalContracts": [],
      "isFixedGasLimit": false
    },
    {
      "hash": "0xae9e0329de5bd9a95e258827ecbc7362ac42e79219c09472f9a2209455e56b67",
      "transactionType": "CALL",
      "contractName": null,
      "contractAddress": "0x0bf3de8c5d3e8a2b34d2beeb17abfcebaf363a59",
      "function": "ccipSend(uint64,(bytes,bytes,(address,uint256)[],address,bytes))",
      "arguments": [
        "3478487238524512106",
        "(0x000000000000000000000000215f5375f81b4b120161ee2965067d9def3c5588, 0x, [(0xa98Dc8D48C96705c8EfB3557fE5acbD4402122cD, 100000)], 0x779877A7B0D9E8603169DdbD7836e478b4624789, 0x97a657c90000000000000000000000000000000000000000000000000000000000000000)"
      ],
      "transaction": {
        "from": "0x215f5375f81b4b120161ee2965067d9def3c5588",
        "to": "0x0bf3de8c5d3e8a2b34d2beeb17abfcebaf363a59",
        "gas": "0x585f1",
        "value": "0x0",
        "input": "0x96f4e9f9000000000000000000000000000000000000000000000000304611b6affba76a000000000000000000000000000000000000000000000000000000000000004000000000000000000000000000000000000000000000000000000000000000a000000000000000000000000000000000000000000000000000000000000000e00000000000000000000000000000000000000000000000000000000000000100000000000000000000000000779877a7b0d9e8603169ddbd7836e478b462478900000000000000000000000000000000000000000000000000000000000001600000000000000000000000000000000000000000000000000000000000000020000000000000000000000000215f5375f81b4b120161ee2965067d9def3c558800000000000000000000000000000000000000000000000000000000000000000000000000000000000000000000000000000000000000000000000000000001000000000000000000000000a98dc8d48c96705c8efb3557fe5acbd4402122cd00000000000000000000000000000000000000000000000000000000000186a0000000000000000000000000000000000000000000000000000000000000002497a657c9000000000000000000000000000000000000000000000000000000000000000000000000000000000000000000000000000000000000000000000000",
        "nonce": "0x58",
        "chainId": "0xaa36a7"
      },
      "additionalContracts": [],
      "isFixedGasLimit": false
    }
  ],
  "receipts": [
    {
      "status": "0x1",
      "cumulativeGasUsed": "0x901698",
      "logs": [
        {
          "address": "0x779877a7b0d9e8603169ddbd7836e478b4624789",
          "topics": [
            "0x8c5be1e5ebec7d5bd14f71427d1e84f3dd0314c0f7b2291e5b200ac8c7c3b925",
            "0x000000000000000000000000215f5375f81b4b120161ee2965067d9def3c5588",
            "0x0000000000000000000000000bf3de8c5d3e8a2b34d2beeb17abfcebaf363a59"
          ],
          "data": "0x00000000000000000000000000000000000000000000000000595084547c59c6",
          "blockHash": "0x12e91035c2a4c1275efc45ec359f1a25bdde39af61e548ececcb05b7d08d1842",
          "blockNumber": "0x79367b",
          "blockTimestamp": "0x67dc5260",
          "transactionHash": "0x4a919ca5b120db7ebecd091ce9274b6307ecaf736cd46641dc0fc814071194c6",
          "transactionIndex": "0x57",
          "logIndex": "0x73",
          "removed": false
        }
      ],
      "logsBloom": "0x00000004000040000000000000000002000000000000010000000000000000000000000000000000000000000000000000000000000000000000000000200000000000000000000000000000000000000000000000000000000000000000000000000000000100000000000000000000000000000000000000000000000000010000000000000000000000000000800000000000000000000000000000000000020000000000080000000000000000000000000000000000000000000000000000000000000000000000000000000000000000000000000100000000000000000010000000000000000000000000000000000000000000000000000000000000",
      "type": "0x2",
      "transactionHash": "0x4a919ca5b120db7ebecd091ce9274b6307ecaf736cd46641dc0fc814071194c6",
      "transactionIndex": "0x57",
      "blockHash": "0x12e91035c2a4c1275efc45ec359f1a25bdde39af61e548ececcb05b7d08d1842",
      "blockNumber": "0x79367b",
      "gasUsed": "0x71cd",
      "effectiveGasPrice": "0x56d45d3",
      "from": "0x215f5375f81b4b120161ee2965067d9def3c5588",
      "to": "0x779877a7b0d9e8603169ddbd7836e478b4624789",
      "contractAddress": null
    },
    {
      "status": "0x1",
      "cumulativeGasUsed": "0x90804e",
      "logs": [
        {
          "address": "0xa98dc8d48c96705c8efb3557fe5acbd4402122cd",
          "topics": [
            "0x8c5be1e5ebec7d5bd14f71427d1e84f3dd0314c0f7b2291e5b200ac8c7c3b925",
            "0x000000000000000000000000215f5375f81b4b120161ee2965067d9def3c5588",
            "0x0000000000000000000000000bf3de8c5d3e8a2b34d2beeb17abfcebaf363a59"
          ],
          "data": "0x00000000000000000000000000000000000000000000000000000000000186a0",
          "blockHash": "0x12e91035c2a4c1275efc45ec359f1a25bdde39af61e548ececcb05b7d08d1842",
          "blockNumber": "0x79367b",
          "blockTimestamp": "0x67dc5260",
          "transactionHash": "0x6a55a832100af491c47826546c900322988e4e47813d30dedd53025d0cb35c96",
          "transactionIndex": "0x58",
          "logIndex": "0x74",
          "removed": false
        }
      ],
      "logsBloom": "0x00000000000040000000000000000006000000000000010000000000000000000000000000000000000000000000000000000000000000000000000000200000000000000000000000000000000000000000000000000000000000000000000000000000000100000000000000000000000000000000000000000000000000010000000000000000000000000000000000000000000000000000000000000000022000010000080000000000000000000000000000000000000000000000000000000000000000000000000000000000000000000000000000000000000000000010000000000000000000000000000000000000000000000000000000000000",
      "type": "0x2",
      "transactionHash": "0x6a55a832100af491c47826546c900322988e4e47813d30dedd53025d0cb35c96",
      "transactionIndex": "0x58",
      "blockHash": "0x12e91035c2a4c1275efc45ec359f1a25bdde39af61e548ececcb05b7d08d1842",
      "blockNumber": "0x79367b",
      "gasUsed": "0x69b6",
      "effectiveGasPrice": "0x56d45d3",
      "from": "0x215f5375f81b4b120161ee2965067d9def3c5588",
      "to": "0xa98dc8d48c96705c8efb3557fe5acbd4402122cd",
      "contractAddress": null
    },
    {
      "status": "0x1",
      "cumulativeGasUsed": "0x947ffa",
      "logs": [
        {
          "address": "0x779877a7b0d9e8603169ddbd7836e478b4624789",
          "topics": [
            "0xddf252ad1be2c89b69c2b068fc378daa952ba7f163c4a11628f55a4df523b3ef",
            "0x000000000000000000000000215f5375f81b4b120161ee2965067d9def3c5588",
            "0x000000000000000000000000bc09627e58989ba8f1eda775e486467d2a00944f"
          ],
          "data": "0x00000000000000000000000000000000000000000000000000595084547c59c6",
          "blockHash": "0x12e91035c2a4c1275efc45ec359f1a25bdde39af61e548ececcb05b7d08d1842",
          "blockNumber": "0x79367b",
          "blockTimestamp": "0x67dc5260",
          "transactionHash": "0xae9e0329de5bd9a95e258827ecbc7362ac42e79219c09472f9a2209455e56b67",
          "transactionIndex": "0x59",
          "logIndex": "0x75",
          "removed": false
        },
        {
          "address": "0x779877a7b0d9e8603169ddbd7836e478b4624789",
          "topics": [
            "0x8c5be1e5ebec7d5bd14f71427d1e84f3dd0314c0f7b2291e5b200ac8c7c3b925",
            "0x000000000000000000000000215f5375f81b4b120161ee2965067d9def3c5588",
            "0x0000000000000000000000000bf3de8c5d3e8a2b34d2beeb17abfcebaf363a59"
          ],
          "data": "0x0000000000000000000000000000000000000000000000000000000000000000",
          "blockHash": "0x12e91035c2a4c1275efc45ec359f1a25bdde39af61e548ececcb05b7d08d1842",
          "blockNumber": "0x79367b",
          "blockTimestamp": "0x67dc5260",
          "transactionHash": "0xae9e0329de5bd9a95e258827ecbc7362ac42e79219c09472f9a2209455e56b67",
          "transactionIndex": "0x59",
          "logIndex": "0x76",
          "removed": false
        },
        {
          "address": "0xa98dc8d48c96705c8efb3557fe5acbd4402122cd",
          "topics": [
            "0xddf252ad1be2c89b69c2b068fc378daa952ba7f163c4a11628f55a4df523b3ef",
            "0x0000000000000000000000000000000000000000000000000000000000000000",
            "0x000000000000000000000000215f5375f81b4b120161ee2965067d9def3c5588"
          ],
          "data": "0x00000000000000000000000000000000000000000000000000000006a50bb971",
          "blockHash": "0x12e91035c2a4c1275efc45ec359f1a25bdde39af61e548ececcb05b7d08d1842",
          "blockNumber": "0x79367b",
          "blockTimestamp": "0x67dc5260",
          "transactionHash": "0xae9e0329de5bd9a95e258827ecbc7362ac42e79219c09472f9a2209455e56b67",
          "transactionIndex": "0x59",
          "logIndex": "0x77",
          "removed": false
        },
        {
          "address": "0xa98dc8d48c96705c8efb3557fe5acbd4402122cd",
          "topics": [
            "0xddf252ad1be2c89b69c2b068fc378daa952ba7f163c4a11628f55a4df523b3ef",
            "0x0000000000000000000000000000000000000000000000000000000000000000",
            "0x0000000000000000000000008fc90c833f927be663f86154846dc9dc032cd418"
          ],
          "data": "0x0000000000000000000000000000000000000000000000000000000000000000",
          "blockHash": "0x12e91035c2a4c1275efc45ec359f1a25bdde39af61e548ececcb05b7d08d1842",
          "blockNumber": "0x79367b",
          "blockTimestamp": "0x67dc5260",
          "transactionHash": "0xae9e0329de5bd9a95e258827ecbc7362ac42e79219c09472f9a2209455e56b67",
          "transactionIndex": "0x59",
          "logIndex": "0x78",
          "removed": false
        },
        {
          "address": "0xa98dc8d48c96705c8efb3557fe5acbd4402122cd",
          "topics": [
            "0xddf252ad1be2c89b69c2b068fc378daa952ba7f163c4a11628f55a4df523b3ef",
            "0x000000000000000000000000215f5375f81b4b120161ee2965067d9def3c5588",
            "0x0000000000000000000000008fc90c833f927be663f86154846dc9dc032cd418"
          ],
          "data": "0x00000000000000000000000000000000000000000000000000000000000186a0",
          "blockHash": "0x12e91035c2a4c1275efc45ec359f1a25bdde39af61e548ececcb05b7d08d1842",
          "blockNumber": "0x79367b",
          "blockTimestamp": "0x67dc5260",
          "transactionHash": "0xae9e0329de5bd9a95e258827ecbc7362ac42e79219c09472f9a2209455e56b67",
          "transactionIndex": "0x59",
          "logIndex": "0x79",
          "removed": false
        },
        {
          "address": "0xa98dc8d48c96705c8efb3557fe5acbd4402122cd",
          "topics": [
            "0xddf252ad1be2c89b69c2b068fc378daa952ba7f163c4a11628f55a4df523b3ef",
            "0x0000000000000000000000000000000000000000000000000000000000000000",
            "0x0000000000000000000000008fc90c833f927be663f86154846dc9dc032cd418"
          ],
          "data": "0x0000000000000000000000000000000000000000000000000000000000000000",
          "blockHash": "0x12e91035c2a4c1275efc45ec359f1a25bdde39af61e548ececcb05b7d08d1842",
          "blockNumber": "0x79367b",
          "blockTimestamp": "0x67dc5260",
          "transactionHash": "0xae9e0329de5bd9a95e258827ecbc7362ac42e79219c09472f9a2209455e56b67",
          "transactionIndex": "0x59",
          "logIndex": "0x7a",
          "removed": false
        },
        {
          "address": "0xa98dc8d48c96705c8efb3557fe5acbd4402122cd",
          "topics": [
            "0xddf252ad1be2c89b69c2b068fc378daa952ba7f163c4a11628f55a4df523b3ef",
            "0x0000000000000000000000008fc90c833f927be663f86154846dc9dc032cd418",
            "0x0000000000000000000000000000000000000000000000000000000000000000"
          ],
          "data": "0x00000000000000000000000000000000000000000000000000000000000186a0",
          "blockHash": "0x12e91035c2a4c1275efc45ec359f1a25bdde39af61e548ececcb05b7d08d1842",
          "blockNumber": "0x79367b",
          "blockTimestamp": "0x67dc5260",
          "transactionHash": "0xae9e0329de5bd9a95e258827ecbc7362ac42e79219c09472f9a2209455e56b67",
          "transactionIndex": "0x59",
          "logIndex": "0x7b",
          "removed": false
        },
        {
          "address": "0xbc09627e58989ba8f1eda775e486467d2a00944f",
          "topics": [
            "0xd0c3c799bf9e2639de44391e7f524d229b2b55f5b1ea94b2bf7da42f7243dddd"
          ],
          "data": "0x0000000000000000000000000000000000000000000000000000000000000020000000000000000000000000000000000000000000000000de41ba4fc9d91ad9000000000000000000000000215f5375f81b4b120161ee2965067d9def3c5588000000000000000000000000215f5375f81b4b120161ee2965067d9def3c5588000000000000000000000000000000000000000000000000000000000000075f000000000000000000000000000000000000000000000000000000000000000000000000000000000000000000000000000000000000000000000000000000000000000000000000000000000000000000000000000000000000000000000002000000000000000000000000779877a7b0d9e8603169ddbd7836e478b462478900000000000000000000000000000000000000000000000000595084547c59c600000000000000000000000000000000000000000000000000000000000001a000000000000000000000000000000000000000000000000000000000000001c00000000000000000000000000000000000000000000000000000000000000220884d69295a38fa0f2dd5dcc9a425e50356380b1994ff000a4c30ec9c4276085500000000000000000000000000000000000000000000000000000000000000000000000000000000000000000000000000000000000000000000000000000001000000000000000000000000a98dc8d48c96705c8efb3557fe5acbd4402122cd00000000000000000000000000000000000000000000000000000000000186a00000000000000000000000000000000000000000000000000000000000000001000000000000000000000000000000000000000000000000000000000000002000000000000000000000000000000000000000000000000000000000000001600000000000000000000000000000000000000000000000000000000000000020000000000000000000000000000000000000000000000000000000000000008000000000000000000000000000000000000000000000000000000000000000c000000000000000000000000000000000000000000000000000000000000001000000000000000000000000000000000000000000000000000000000000015f9000000000000000000000000000000000000000000000000000000000000000200000000000000000000000008fc90c833f927be663f86154846dc9dc032cd418000000000000000000000000000000000000000000000000000000000000002000000000000000000000000026c67deabb66c7ada73659c628c994cfab82166d00000000000000000000000000000000000000000000000000000000000000200000000000000000000000000000000000000000000000000000000ba43b7400",
          "blockHash": "0x12e91035c2a4c1275efc45ec359f1a25bdde39af61e548ececcb05b7d08d1842",
          "blockNumber": "0x79367b",
          "blockTimestamp": "0x67dc5260",
          "transactionHash": "0xae9e0329de5bd9a95e258827ecbc7362ac42e79219c09472f9a2209455e56b67",
          "transactionIndex": "0x59",
          "logIndex": "0x7c",
          "removed": false
        }
      ],
      "logsBloom": "0x00000004080040000000000000000006000000000000010000000000000000000000000000000000000000000080000000000000000000000000000000200000000100000000000000000008000000000000000000000000000000000000000000020000020100000000000000000800000000000000000000000010000000010000000000000000000000000000800000000000000000000000000000000000022000010000080400400000000000000000000000000000000100000000000000000002000000000000000002001000000000000000000100000000000020000010000000000000000000000000000004000000000000040000000000000000",
      "type": "0x2",
      "transactionHash": "0xae9e0329de5bd9a95e258827ecbc7362ac42e79219c09472f9a2209455e56b67",
      "transactionIndex": "0x59",
      "blockHash": "0x12e91035c2a4c1275efc45ec359f1a25bdde39af61e548ececcb05b7d08d1842",
      "blockNumber": "0x79367b",
      "gasUsed": "0x3ffac",
      "effectiveGasPrice": "0x56d45d3",
      "from": "0x215f5375f81b4b120161ee2965067d9def3c5588",
      "to": "0x0bf3de8c5d3e8a2b34d2beeb17abfcebaf363a59",
      "contractAddress": null
    }
  ],
  "libraries": [],
  "pending": [],
  "returns": {},
  "timestamp": 1742492257,
  "chain": 11155111,
  "commit": "740b069"
}