{
  "transactions": [
    {
      "hash": "0x63702e5449f64fa15d1edbcdaa8c21cab87e56067d549c0dad5476a904a82ec3",
      "transactionType": "CALL",
      "contractName": null,
      "contractAddress": "0x779877a7b0d9e8603169ddbd7836e478b4624789",
      "function": "approve(address,uint256)",
      "arguments": [
        "0x0BF3dE8c5D3e8A2B34D2BEeB17ABfCeBaf363A59",
        "25139802210589126"
      ],
      "transaction": {
        "from": "0x215f5375f81b4b120161ee2965067d9def3c5588",
        "to": "0x779877a7b0d9e8603169ddbd7836e478b4624789",
        "gas": "0x9d2e",
        "value": "0x0",
        "input": "0x095ea7b30000000000000000000000000bf3de8c5d3e8a2b34d2beeb17abfcebaf363a5900000000000000000000000000000000000000000000000000595084547c59c6",
        "nonce": "0x47",
        "chainId": "0xaa36a7"
      },
      "additionalContracts": [],
      "isFixedGasLimit": false
    },
    {
      "hash": "0x405141b09c44136182678a9f5b6977131726d6ef85c2a1b58ac425d4d5476753",
      "transactionType": "CALL",
      "contractName": null,
      "contractAddress": "0x0df3aa19c1c673f0eeb83e12b91e199b6eecd2a5",
      "function": "approve(address,uint256)",
      "arguments": [
        "0x0BF3dE8c5D3e8A2B34D2BEeB17ABfCeBaf363A59",
        "100000"
      ],
      "transaction": {
        "from": "0x215f5375f81b4b120161ee2965067d9def3c5588",
        "to": "0x0df3aa19c1c673f0eeb83e12b91e199b6eecd2a5",
        "gas": "0x9202",
        "value": "0x0",
        "input": "0x095ea7b30000000000000000000000000bf3de8c5d3e8a2b34d2beeb17abfcebaf363a5900000000000000000000000000000000000000000000000000000000000186a0",
        "nonce": "0x48",
        "chainId": "0xaa36a7"
      },
      "additionalContracts": [],
      "isFixedGasLimit": false
    },
    {
      "hash": "0x9c9cd66f987f890dedf221f759dd2c4696465ca4d50529d1ff536a35e94dd433",
      "transactionType": "CALL",
      "contractName": null,
      "contractAddress": "0x0bf3de8c5d3e8a2b34d2beeb17abfcebaf363a59",
      "function": "ccipSend(uint64,(bytes,bytes,(address,uint256)[],address,bytes))",
      "arguments": [
        "3478487238524512106",
        "(0x000000000000000000000000215f5375f81b4b120161ee2965067d9def3c5588, 0x, [(0x0DF3aA19c1C673f0EEb83e12b91E199B6EecD2a5, 100000)], 0x779877A7B0D9E8603169DdbD7836e478b4624789, 0x97a657c90000000000000000000000000000000000000000000000000000000000000000)"
      ],
      "transaction": {
        "from": "0x215f5375f81b4b120161ee2965067d9def3c5588",
        "to": "0x0bf3de8c5d3e8a2b34d2beeb17abfcebaf363a59",
        "gas": "0x65d00",
        "value": "0x0",
        "input": "0x96f4e9f9000000000000000000000000000000000000000000000000304611b6affba76a000000000000000000000000000000000000000000000000000000000000004000000000000000000000000000000000000000000000000000000000000000a000000000000000000000000000000000000000000000000000000000000000e00000000000000000000000000000000000000000000000000000000000000100000000000000000000000000779877a7b0d9e8603169ddbd7836e478b462478900000000000000000000000000000000000000000000000000000000000001600000000000000000000000000000000000000000000000000000000000000020000000000000000000000000215f5375f81b4b120161ee2965067d9def3c5588000000000000000000000000000000000000000000000000000000000000000000000000000000000000000000000000000000000000000000000000000000010000000000000000000000000df3aa19c1c673f0eeb83e12b91e199b6eecd2a500000000000000000000000000000000000000000000000000000000000186a0000000000000000000000000000000000000000000000000000000000000002497a657c9000000000000000000000000000000000000000000000000000000000000000000000000000000000000000000000000000000000000000000000000",
        "nonce": "0x49",
        "chainId": "0xaa36a7"
      },
      "additionalContracts": [],
      "isFixedGasLimit": false
    }
  ],
  "receipts": [
    {
      "status": "0x1",
      "cumulativeGasUsed": "0xaafe39",
      "logs": [
        {
          "address": "0x779877a7b0d9e8603169ddbd7836e478b4624789",
          "topics": [
            "0x8c5be1e5ebec7d5bd14f71427d1e84f3dd0314c0f7b2291e5b200ac8c7c3b925",
            "0x000000000000000000000000215f5375f81b4b120161ee2965067d9def3c5588",
            "0x0000000000000000000000000bf3de8c5d3e8a2b34d2beeb17abfcebaf363a59"
          ],
          "data": "0x00000000000000000000000000000000000000000000000000595084547c59c6",
          "blockHash": "0x493036c8b51cee49f51c0c05d7871cee46e5349c782b5677c7dfb2bf1d6c802a",
          "blockNumber": "0x7935d1",
          "blockTimestamp": "0x67dc4a68",
          "transactionHash": "0x63702e5449f64fa15d1edbcdaa8c21cab87e56067d549c0dad5476a904a82ec3",
          "transactionIndex": "0x82",
          "logIndex": "0xc6",
          "removed": false
        }
      ],
      "logsBloom": "0x00000004000040000000000000000002000000000000010000000000000000000000000000000000000000000000000000000000000000000000000000200000000000000000000000000000000000000000000000000000000000000000000000000000000100000000000000000000000000000000000000000000000000010000000000000000000000000000800000000000000000000000000000000000020000000000080000000000000000000000000000000000000000000000000000000000000000000000000000000000000000000000000100000000000000000010000000000000000000000000000000000000000000000000000000000000",
      "type": "0x2",
      "transactionHash": "0x63702e5449f64fa15d1edbcdaa8c21cab87e56067d549c0dad5476a904a82ec3",
      "transactionIndex": "0x82",
      "blockHash": "0x493036c8b51cee49f51c0c05d7871cee46e5349c782b5677c7dfb2bf1d6c802a",
      "blockNumber": "0x7935d1",
      "gasUsed": "0x71cd",
      "effectiveGasPrice": "0x76e3455",
      "from": "0x215f5375f81b4b120161ee2965067d9def3c5588",
      "to": "0x779877a7b0d9e8603169ddbd7836e478b4624789",
      "contractAddress": null
    },
    {
      "status": "0x1",
      "cumulativeGasUsed": "0xab67ef",
      "logs": [
        {
          "address": "0x0df3aa19c1c673f0eeb83e12b91e199b6eecd2a5",
          "topics": [
            "0x8c5be1e5ebec7d5bd14f71427d1e84f3dd0314c0f7b2291e5b200ac8c7c3b925",
            "0x000000000000000000000000215f5375f81b4b120161ee2965067d9def3c5588",
            "0x0000000000000000000000000bf3de8c5d3e8a2b34d2beeb17abfcebaf363a59"
          ],
          "data": "0x00000000000000000000000000000000000000000000000000000000000186a0",
          "blockHash": "0x493036c8b51cee49f51c0c05d7871cee46e5349c782b5677c7dfb2bf1d6c802a",
          "blockNumber": "0x7935d1",
          "blockTimestamp": "0x67dc4a68",
          "transactionHash": "0x405141b09c44136182678a9f5b6977131726d6ef85c2a1b58ac425d4d5476753",
          "transactionIndex": "0x83",
          "logIndex": "0xc7",
          "removed": false
        }
      ],
      "logsBloom": "0x00000000000040000000000000000002000000000000010000000000000000000000000000000000000000000000000000000000000000000000000000200000000000000000000000000000000000000000000000000000000000000000000004000000000100000000000000000000000000100000000000000000000000010000000000000000000000000002000000000000000000000000000000000000020000000000080000000000000000000000000000000000000000000000000000000000000000000000000000000000000000000000000000000000000000000010000000000000000000000000000000000000000000000000000000000000",
      "type": "0x2",
      "transactionHash": "0x405141b09c44136182678a9f5b6977131726d6ef85c2a1b58ac425d4d5476753",
      "transactionIndex": "0x83",
      "blockHash": "0x493036c8b51cee49f51c0c05d7871cee46e5349c782b5677c7dfb2bf1d6c802a",
      "blockNumber": "0x7935d1",
      "gasUsed": "0x69b6",
      "effectiveGasPrice": "0x76e3455",
      "from": "0x215f5375f81b4b120161ee2965067d9def3c5588",
      "to": "0x0df3aa19c1c673f0eeb83e12b91e199b6eecd2a5",
      "contractAddress": null
    },
    {
      "status": "0x1",
      "cumulativeGasUsed": "0xafc1c8",
      "logs": [
        {
          "address": "0x779877a7b0d9e8603169ddbd7836e478b4624789",
          "topics": [
            "0xddf252ad1be2c89b69c2b068fc378daa952ba7f163c4a11628f55a4df523b3ef",
            "0x000000000000000000000000215f5375f81b4b120161ee2965067d9def3c5588",
            "0x000000000000000000000000bc09627e58989ba8f1eda775e486467d2a00944f"
          ],
          "data": "0x00000000000000000000000000000000000000000000000000595084547c59c6",
          "blockHash": "0x493036c8b51cee49f51c0c05d7871cee46e5349c782b5677c7dfb2bf1d6c802a",
          "blockNumber": "0x7935d1",
          "blockTimestamp": "0x67dc4a68",
          "transactionHash": "0x9c9cd66f987f890dedf221f759dd2c4696465ca4d50529d1ff536a35e94dd433",
          "transactionIndex": "0x84",
          "logIndex": "0xc8",
          "removed": false
        },
        {
          "address": "0x779877a7b0d9e8603169ddbd7836e478b4624789",
          "topics": [
            "0x8c5be1e5ebec7d5bd14f71427d1e84f3dd0314c0f7b2291e5b200ac8c7c3b925",
            "0x000000000000000000000000215f5375f81b4b120161ee2965067d9def3c5588",
            "0x0000000000000000000000000bf3de8c5d3e8a2b34d2beeb17abfcebaf363a59"
          ],
          "data": "0x0000000000000000000000000000000000000000000000000000000000000000",
          "blockHash": "0x493036c8b51cee49f51c0c05d7871cee46e5349c782b5677c7dfb2bf1d6c802a",
          "blockNumber": "0x7935d1",
          "blockTimestamp": "0x67dc4a68",
          "transactionHash": "0x9c9cd66f987f890dedf221f759dd2c4696465ca4d50529d1ff536a35e94dd433",
          "transactionIndex": "0x84",
          "logIndex": "0xc9",
          "removed": false
        },
        {
          "address": "0x0df3aa19c1c673f0eeb83e12b91e199b6eecd2a5",
          "topics": [
            "0xddf252ad1be2c89b69c2b068fc378daa952ba7f163c4a11628f55a4df523b3ef",
            "0x0000000000000000000000000000000000000000000000000000000000000000",
            "0x000000000000000000000000215f5375f81b4b120161ee2965067d9def3c5588"
          ],
          "data": "0x0000000000000000000000000000000000000000000000000000000a30452d69",
          "blockHash": "0x493036c8b51cee49f51c0c05d7871cee46e5349c782b5677c7dfb2bf1d6c802a",
          "blockNumber": "0x7935d1",
          "blockTimestamp": "0x67dc4a68",
          "transactionHash": "0x9c9cd66f987f890dedf221f759dd2c4696465ca4d50529d1ff536a35e94dd433",
          "transactionIndex": "0x84",
          "logIndex": "0xca",
          "removed": false
        },
        {
          "address": "0x0df3aa19c1c673f0eeb83e12b91e199b6eecd2a5",
          "topics": [
            "0xddf252ad1be2c89b69c2b068fc378daa952ba7f163c4a11628f55a4df523b3ef",
            "0x0000000000000000000000000000000000000000000000000000000000000000",
            "0x000000000000000000000000d0fa1b1a5f89df51fe78df0cbf99715aedaf2943"
          ],
          "data": "0x0000000000000000000000000000000000000000000000000000000000000000",
          "blockHash": "0x493036c8b51cee49f51c0c05d7871cee46e5349c782b5677c7dfb2bf1d6c802a",
          "blockNumber": "0x7935d1",
          "blockTimestamp": "0x67dc4a68",
          "transactionHash": "0x9c9cd66f987f890dedf221f759dd2c4696465ca4d50529d1ff536a35e94dd433",
          "transactionIndex": "0x84",
          "logIndex": "0xcb",
          "removed": false
        },
        {
          "address": "0x0df3aa19c1c673f0eeb83e12b91e199b6eecd2a5",
          "topics": [
            "0xddf252ad1be2c89b69c2b068fc378daa952ba7f163c4a11628f55a4df523b3ef",
            "0x000000000000000000000000215f5375f81b4b120161ee2965067d9def3c5588",
            "0x000000000000000000000000d0fa1b1a5f89df51fe78df0cbf99715aedaf2943"
          ],
          "data": "0x00000000000000000000000000000000000000000000000000000000000186a0",
          "blockHash": "0x493036c8b51cee49f51c0c05d7871cee46e5349c782b5677c7dfb2bf1d6c802a",
          "blockNumber": "0x7935d1",
          "blockTimestamp": "0x67dc4a68",
          "transactionHash": "0x9c9cd66f987f890dedf221f759dd2c4696465ca4d50529d1ff536a35e94dd433",
          "transactionIndex": "0x84",
          "logIndex": "0xcc",
          "removed": false
        },
        {
          "address": "0x0df3aa19c1c673f0eeb83e12b91e199b6eecd2a5",
          "topics": [
            "0xddf252ad1be2c89b69c2b068fc378daa952ba7f163c4a11628f55a4df523b3ef",
            "0x0000000000000000000000000000000000000000000000000000000000000000",
            "0x000000000000000000000000d0fa1b1a5f89df51fe78df0cbf99715aedaf2943"
          ],
          "data": "0x0000000000000000000000000000000000000000000000000000000000000000",
          "blockHash": "0x493036c8b51cee49f51c0c05d7871cee46e5349c782b5677c7dfb2bf1d6c802a",
          "blockNumber": "0x7935d1",
          "blockTimestamp": "0x67dc4a68",
          "transactionHash": "0x9c9cd66f987f890dedf221f759dd2c4696465ca4d50529d1ff536a35e94dd433",
          "transactionIndex": "0x84",
          "logIndex": "0xcd",
          "removed": false
        },
        {
          "address": "0x0df3aa19c1c673f0eeb83e12b91e199b6eecd2a5",
          "topics": [
            "0xddf252ad1be2c89b69c2b068fc378daa952ba7f163c4a11628f55a4df523b3ef",
            "0x000000000000000000000000d0fa1b1a5f89df51fe78df0cbf99715aedaf2943",
            "0x0000000000000000000000000000000000000000000000000000000000000000"
          ],
          "data": "0x00000000000000000000000000000000000000000000000000000000000186a0",
          "blockHash": "0x493036c8b51cee49f51c0c05d7871cee46e5349c782b5677c7dfb2bf1d6c802a",
          "blockNumber": "0x7935d1",
          "blockTimestamp": "0x67dc4a68",
          "transactionHash": "0x9c9cd66f987f890dedf221f759dd2c4696465ca4d50529d1ff536a35e94dd433",
          "transactionIndex": "0x84",
          "logIndex": "0xce",
          "removed": false
        },
        {
          "address": "0xbc09627e58989ba8f1eda775e486467d2a00944f",
          "topics": [
            "0xd0c3c799bf9e2639de44391e7f524d229b2b55f5b1ea94b2bf7da42f7243dddd"
          ],
          "data": "0x0000000000000000000000000000000000000000000000000000000000000020000000000000000000000000000000000000000000000000de41ba4fc9d91ad9000000000000000000000000215f5375f81b4b120161ee2965067d9def3c5588000000000000000000000000215f5375f81b4b120161ee2965067d9def3c5588000000000000000000000000000000000000000000000000000000000000075e000000000000000000000000000000000000000000000000000000000000000000000000000000000000000000000000000000000000000000000000000000000000000000000000000000000000000000000000000000000000000000000001000000000000000000000000779877a7b0d9e8603169ddbd7836e478b462478900000000000000000000000000000000000000000000000000595084547c59c600000000000000000000000000000000000000000000000000000000000001a000000000000000000000000000000000000000000000000000000000000001c000000000000000000000000000000000000000000000000000000000000002209cc53c415f84515f81860394c3d820909156283778b7afa1efcef139c7cafb59000000000000000000000000000000000000000000000000000000000000000000000000000000000000000000000000000000000000000000000000000000010000000000000000000000000df3aa19c1c673f0eeb83e12b91e199b6eecd2a500000000000000000000000000000000000000000000000000000000000186a00000000000000000000000000000000000000000000000000000000000000001000000000000000000000000000000000000000000000000000000000000002000000000000000000000000000000000000000000000000000000000000001600000000000000000000000000000000000000000000000000000000000000020000000000000000000000000000000000000000000000000000000000000008000000000000000000000000000000000000000000000000000000000000000c000000000000000000000000000000000000000000000000000000000000001000000000000000000000000000000000000000000000000000000000000015f900000000000000000000000000000000000000000000000000000000000000020000000000000000000000000d0fa1b1a5f89df51fe78df0cbf99715aedaf29430000000000000000000000000000000000000000000000000000000000000020000000000000000000000000fb2fcfeebd8722fa802f33c381ff4d1c3dbeb6bf00000000000000000000000000000000000000000000000000000000000000200000000000000000000000000000000000000000000000000000000ba43b7400",
          "blockHash": "0x493036c8b51cee49f51c0c05d7871cee46e5349c782b5677c7dfb2bf1d6c802a",
          "blockNumber": "0x7935d1",
          "blockTimestamp": "0x67dc4a68",
          "transactionHash": "0x9c9cd66f987f890dedf221f759dd2c4696465ca4d50529d1ff536a35e94dd433",
          "transactionIndex": "0x84",
          "logIndex": "0xcf",
          "removed": false
        }
      ],
      "logsBloom": "0x00000004080040000000000000000002000000000000010000000000000000000000000000000000000000000000000000000000000000000000000000200000000100000000000000000008000000000000000000000000000000000000000004020000020100000000000000000800000000100000000000000010000000010000000000000000000000000002800000000000000000000000000000120000020000000000080400400000000000000000000000000000000100000000000000000002000000000000000002000000000000000000000100000000000020000010000000000000000000000004000004000000000000040000000000000000",
      "type": "0x2",
      "transactionHash": "0x9c9cd66f987f890dedf221f759dd2c4696465ca4d50529d1ff536a35e94dd433",
      "transactionIndex": "0x84",
      "blockHash": "0x493036c8b51cee49f51c0c05d7871cee46e5349c782b5677c7dfb2bf1d6c802a",
      "blockNumber": "0x7935d1",
      "gasUsed": "0x459d9",
      "effectiveGasPrice": "0x76e3455",
      "from": "0x215f5375f81b4b120161ee2965067d9def3c5588",
      "to": "0x0bf3de8c5d3e8a2b34d2beeb17abfcebaf363a59",
      "contractAddress": null
    }
  ],
  "libraries": [],
  "pending": [],
  "returns": {},
  "timestamp": 1742490217,
  "chain": 11155111,
  "commit": "740b069"
}